{
	"data": {
		"bytecode": {
			"linkReferences": {},
			"object": "6080604052348015600e575f5ffd5b50610a3d8061001c5f395ff3fe608060405234801561000f575f5ffd5b5060043610610055575f3560e01c80631f80e9251461005957806335dfc1c31461006e5780636920613f1461009b5780639b31b2f4146100b2578063b1152847146100c5575b5f5ffd5b61006c610067366004610725565b6100d8565b005b61008161007c366004610793565b6102d0565b6040516100929594939291906107d8565b60405180910390f35b6100a460015481565b604051908152602001610092565b61006c6100c0366004610825565b610418565b6100816100d3366004610793565b6104cf565b5f8351116101265760405162461bcd60e51b81526020600482015260166024820152754465677265652063616e6e6f7420626520656d70747960501b60448201526064015b60405180910390fd5b5f8251116101765760405162461bcd60e51b815260206004820152601c60248201527f53747564656e74206e616d652063616e6e6f7420626520656d70747900000000604482015260640161011d565b5f81116101d75760405162461bcd60e51b815260206004820152602960248201527f47726164756174696f6e2079656172206d7573742062652067726561746572206044820152687468616e207a65726f60b81b606482015260840161011d565b60018054905f6101e683610857565b90915550506040805160a08101825284815260208082018590528183018490523360608301525f60808301819052600154815290819052919091208151819061022f90826108ff565b506020820151600182019061024490826108ff565b5060408281015160028301556060830151600390920180546080909401511515600160a01b026001600160a81b03199094166001600160a01b039093169290921792909217905560015490517fd53c56b9d0a4775f48a997731c7368d64b5a6105ab4ddefaaef2b838200017de916102c39186908690869033906109ba565b60405180910390a1505050565b5f602081905290815260409020805481906102ea9061087b565b80601f01602080910402602001604051908101604052809291908181526020018280546103169061087b565b80156103615780601f1061033857610100808354040283529160200191610361565b820191905f5260205f20905b81548152906001019060200180831161034457829003601f168201915b5050505050908060010180546103769061087b565b80601f01602080910402602001604051908101604052809291908181526020018280546103a29061087b565b80156103ed5780601f106103c4576101008083540402835291602001916103ed565b820191905f5260205f20905b8154815290600101906020018083116103d057829003601f168201915b5050505060028301546003909301549192916001600160a01b0381169150600160a01b900460ff1685565b5f8211801561042957506001548211155b61046a5760405162461bcd60e51b8152602060048201526012602482015271125b9d985b1a5908191a5c1b1bdb5848125160721b604482015260640161011d565b5f8281526020818152604091829020600301805460ff60a01b1916600160a01b851515908102919091179091558251858152918201527f0efeb469eefcbd7a1026ca487b36f4a14a170869e4c77c5dd3c0673df165ef6b910160405180910390a15050565b6060805f5f5f5f861180156104e657506001548611155b6105275760405162461bcd60e51b8152602060048201526012602482015271125b9d985b1a5908191a5c1b1bdb5848125160721b604482015260640161011d565b5f8681526020819052604090206002810154600382015482548392600184019290916001600160a01b03821691600160a01b900460ff1690859061056a9061087b565b80601f01602080910402602001604051908101604052809291908181526020018280546105969061087b565b80156105e15780601f106105b8576101008083540402835291602001916105e1565b820191905f5260205f20905b8154815290600101906020018083116105c457829003601f168201915b505050505094508380546105f49061087b565b80601f01602080910402602001604051908101604052809291908181526020018280546106209061087b565b801561066b5780601f106106425761010080835404028352916020019161066b565b820191905f5260205f20905b81548152906001019060200180831161064e57829003601f168201915b50505050509350955095509550955095505091939590929450565b634e487b7160e01b5f52604160045260245ffd5b5f82601f8301126106a9575f5ffd5b813567ffffffffffffffff8111156106c3576106c3610686565b604051601f8201601f19908116603f0116810167ffffffffffffffff811182821017156106f2576106f2610686565b604052818152838201602001851015610709575f5ffd5b816020850160208301375f918101602001919091529392505050565b5f5f5f60608486031215610737575f5ffd5b833567ffffffffffffffff81111561074d575f5ffd5b6107598682870161069a565b935050602084013567ffffffffffffffff811115610775575f5ffd5b6107818682870161069a565b93969395505050506040919091013590565b5f602082840312156107a3575f5ffd5b5035919050565b5f81518084528060208401602086015e5f602082860101526020601f19601f83011685010191505092915050565b60a081525f6107ea60a08301886107aa565b82810360208401526107fc81886107aa565b604084019690965250506001600160a01b03929092166060830152151560809091015292915050565b5f5f60408385031215610836575f5ffd5b823591506020830135801515811461084c575f5ffd5b809150509250929050565b5f6001820161087457634e487b7160e01b5f52601160045260245ffd5b5060010190565b600181811c9082168061088f57607f821691505b6020821081036108ad57634e487b7160e01b5f52602260045260245ffd5b50919050565b601f8211156108fa57805f5260205f20601f840160051c810160208510156108d85750805b601f840160051c820191505b818110156108f7575f81556001016108e4565b50505b505050565b815167ffffffffffffffff81111561091957610919610686565b61092d81610927845461087b565b846108b3565b6020601f82116001811461095f575f83156109485750848201515b5f19600385901b1c1916600184901b1784556108f7565b5f84815260208120601f198516915b8281101561098e578785015182556020948501946001909201910161096e565b50848210156109ab57868401515f19600387901b60f8161c191681555b50505050600190811b01905550565b85815260a060208201525f6109d260a08301876107aa565b82810360408401526109e481876107aa565b606084019590955250506001600160a01b0391909116608090910152939250505056fea26469706673582212209930815c84972883ce929d898524595bd40cc8a029fb2e70451589862e18441c64736f6c634300081d0033",
			"opcodes": "PUSH1 0x80 PUSH1 0x40 MSTORE CALLVALUE DUP1 ISZERO PUSH1 0xE JUMPI PUSH0 PUSH0 REVERT JUMPDEST POP PUSH2 0xA3D DUP1 PUSH2 0x1C PUSH0 CODECOPY PUSH0 RETURN INVALID PUSH1 0x80 PUSH1 0x40 MSTORE CALLVALUE DUP1 ISZERO PUSH2 0xF JUMPI PUSH0 PUSH0 REVERT JUMPDEST POP PUSH1 0x4 CALLDATASIZE LT PUSH2 0x55 JUMPI PUSH0 CALLDATALOAD PUSH1 0xE0 SHR DUP1 PUSH4 0x1F80E925 EQ PUSH2 0x59 JUMPI DUP1 PUSH4 0x35DFC1C3 EQ PUSH2 0x6E JUMPI DUP1 PUSH4 0x6920613F EQ PUSH2 0x9B JUMPI DUP1 PUSH4 0x9B31B2F4 EQ PUSH2 0xB2 JUMPI DUP1 PUSH4 0xB1152847 EQ PUSH2 0xC5 JUMPI JUMPDEST PUSH0 PUSH0 REVERT JUMPDEST PUSH2 0x6C PUSH2 0x67 CALLDATASIZE PUSH1 0x4 PUSH2 0x725 JUMP JUMPDEST PUSH2 0xD8 JUMP JUMPDEST STOP JUMPDEST PUSH2 0x81 PUSH2 0x7C CALLDATASIZE PUSH1 0x4 PUSH2 0x793 JUMP JUMPDEST PUSH2 0x2D0 JUMP JUMPDEST PUSH1 0x40 MLOAD PUSH2 0x92 SWAP6 SWAP5 SWAP4 SWAP3 SWAP2 SWAP1 PUSH2 0x7D8 JUMP JUMPDEST PUSH1 0x40 MLOAD DUP1 SWAP2 SUB SWAP1 RETURN JUMPDEST PUSH2 0xA4 PUSH1 0x1 SLOAD DUP2 JUMP JUMPDEST PUSH1 0x40 MLOAD SWAP1 DUP2 MSTORE PUSH1 0x20 ADD PUSH2 0x92 JUMP JUMPDEST PUSH2 0x6C PUSH2 0xC0 CALLDATASIZE PUSH1 0x4 PUSH2 0x825 JUMP JUMPDEST PUSH2 0x418 JUMP JUMPDEST PUSH2 0x81 PUSH2 0xD3 CALLDATASIZE PUSH1 0x4 PUSH2 0x793 JUMP JUMPDEST PUSH2 0x4CF JUMP JUMPDEST PUSH0 DUP4 MLOAD GT PUSH2 0x126 JUMPI PUSH1 0x40 MLOAD PUSH3 0x461BCD PUSH1 0xE5 SHL DUP2 MSTORE PUSH1 0x20 PUSH1 0x4 DUP3 ADD MSTORE PUSH1 0x16 PUSH1 0x24 DUP3 ADD MSTORE PUSH22 0x4465677265652063616E6E6F7420626520656D707479 PUSH1 0x50 SHL PUSH1 0x44 DUP3 ADD MSTORE PUSH1 0x64 ADD JUMPDEST PUSH1 0x40 MLOAD DUP1 SWAP2 SUB SWAP1 REVERT JUMPDEST PUSH0 DUP3 MLOAD GT PUSH2 0x176 JUMPI PUSH1 0x40 MLOAD PUSH3 0x461BCD PUSH1 0xE5 SHL DUP2 MSTORE PUSH1 0x20 PUSH1 0x4 DUP3 ADD MSTORE PUSH1 0x1C PUSH1 0x24 DUP3 ADD MSTORE PUSH32 0x53747564656E74206E616D652063616E6E6F7420626520656D70747900000000 PUSH1 0x44 DUP3 ADD MSTORE PUSH1 0x64 ADD PUSH2 0x11D JUMP JUMPDEST PUSH0 DUP2 GT PUSH2 0x1D7 JUMPI PUSH1 0x40 MLOAD PUSH3 0x461BCD PUSH1 0xE5 SHL DUP2 MSTORE PUSH1 0x20 PUSH1 0x4 DUP3 ADD MSTORE PUSH1 0x29 PUSH1 0x24 DUP3 ADD MSTORE PUSH32 0x47726164756174696F6E2079656172206D757374206265206772656174657220 PUSH1 0x44 DUP3 ADD MSTORE PUSH9 0x7468616E207A65726F PUSH1 0xB8 SHL PUSH1 0x64 DUP3 ADD MSTORE PUSH1 0x84 ADD PUSH2 0x11D JUMP JUMPDEST PUSH1 0x1 DUP1 SLOAD SWAP1 PUSH0 PUSH2 0x1E6 DUP4 PUSH2 0x857 JUMP JUMPDEST SWAP1 SWAP2 SSTORE POP POP PUSH1 0x40 DUP1 MLOAD PUSH1 0xA0 DUP2 ADD DUP3 MSTORE DUP5 DUP2 MSTORE PUSH1 0x20 DUP1 DUP3 ADD DUP6 SWAP1 MSTORE DUP2 DUP4 ADD DUP5 SWAP1 MSTORE CALLER PUSH1 0x60 DUP4 ADD MSTORE PUSH0 PUSH1 0x80 DUP4 ADD DUP2 SWAP1 MSTORE PUSH1 0x1 SLOAD DUP2 MSTORE SWAP1 DUP2 SWAP1 MSTORE SWAP2 SWAP1 SWAP2 KECCAK256 DUP2 MLOAD DUP2 SWAP1 PUSH2 0x22F SWAP1 DUP3 PUSH2 0x8FF JUMP JUMPDEST POP PUSH1 0x20 DUP3 ADD MLOAD PUSH1 0x1 DUP3 ADD SWAP1 PUSH2 0x244 SWAP1 DUP3 PUSH2 0x8FF JUMP JUMPDEST POP PUSH1 0x40 DUP3 DUP2 ADD MLOAD PUSH1 0x2 DUP4 ADD SSTORE PUSH1 0x60 DUP4 ADD MLOAD PUSH1 0x3 SWAP1 SWAP3 ADD DUP1 SLOAD PUSH1 0x80 SWAP1 SWAP5 ADD MLOAD ISZERO ISZERO PUSH1 0x1 PUSH1 0xA0 SHL MUL PUSH1 0x1 PUSH1 0x1 PUSH1 0xA8 SHL SUB NOT SWAP1 SWAP5 AND PUSH1 0x1 PUSH1 0x1 PUSH1 0xA0 SHL SUB SWAP1 SWAP4 AND SWAP3 SWAP1 SWAP3 OR SWAP3 SWAP1 SWAP3 OR SWAP1 SSTORE PUSH1 0x1 SLOAD SWAP1 MLOAD PUSH32 0xD53C56B9D0A4775F48A997731C7368D64B5A6105AB4DDEFAAEF2B838200017DE SWAP2 PUSH2 0x2C3 SWAP2 DUP7 SWAP1 DUP7 SWAP1 DUP7 SWAP1 CALLER SWAP1 PUSH2 0x9BA JUMP JUMPDEST PUSH1 0x40 MLOAD DUP1 SWAP2 SUB SWAP1 LOG1 POP POP POP JUMP JUMPDEST PUSH0 PUSH1 0x20 DUP2 SWAP1 MSTORE SWAP1 DUP2 MSTORE PUSH1 0x40 SWAP1 KECCAK256 DUP1 SLOAD DUP2 SWAP1 PUSH2 0x2EA SWAP1 PUSH2 0x87B JUMP JUMPDEST DUP1 PUSH1 0x1F ADD PUSH1 0x20 DUP1 SWAP2 DIV MUL PUSH1 0x20 ADD PUSH1 0x40 MLOAD SWAP1 DUP2 ADD PUSH1 0x40 MSTORE DUP1 SWAP3 SWAP2 SWAP1 DUP2 DUP2 MSTORE PUSH1 0x20 ADD DUP3 DUP1 SLOAD PUSH2 0x316 SWAP1 PUSH2 0x87B JUMP JUMPDEST DUP1 ISZERO PUSH2 0x361 JUMPI DUP1 PUSH1 0x1F LT PUSH2 0x338 JUMPI PUSH2 0x100 DUP1 DUP4 SLOAD DIV MUL DUP4 MSTORE SWAP2 PUSH1 0x20 ADD SWAP2 PUSH2 0x361 JUMP JUMPDEST DUP3 ADD SWAP2 SWAP1 PUSH0 MSTORE PUSH1 0x20 PUSH0 KECCAK256 SWAP1 JUMPDEST DUP2 SLOAD DUP2 MSTORE SWAP1 PUSH1 0x1 ADD SWAP1 PUSH1 0x20 ADD DUP1 DUP4 GT PUSH2 0x344 JUMPI DUP3 SWAP1 SUB PUSH1 0x1F AND DUP3 ADD SWAP2 JUMPDEST POP POP POP POP POP SWAP1 DUP1 PUSH1 0x1 ADD DUP1 SLOAD PUSH2 0x376 SWAP1 PUSH2 0x87B JUMP JUMPDEST DUP1 PUSH1 0x1F ADD PUSH1 0x20 DUP1 SWAP2 DIV MUL PUSH1 0x20 ADD PUSH1 0x40 MLOAD SWAP1 DUP2 ADD PUSH1 0x40 MSTORE DUP1 SWAP3 SWAP2 SWAP1 DUP2 DUP2 MSTORE PUSH1 0x20 ADD DUP3 DUP1 SLOAD PUSH2 0x3A2 SWAP1 PUSH2 0x87B JUMP JUMPDEST DUP1 ISZERO PUSH2 0x3ED JUMPI DUP1 PUSH1 0x1F LT PUSH2 0x3C4 JUMPI PUSH2 0x100 DUP1 DUP4 SLOAD DIV MUL DUP4 MSTORE SWAP2 PUSH1 0x20 ADD SWAP2 PUSH2 0x3ED JUMP JUMPDEST DUP3 ADD SWAP2 SWAP1 PUSH0 MSTORE PUSH1 0x20 PUSH0 KECCAK256 SWAP1 JUMPDEST DUP2 SLOAD DUP2 MSTORE SWAP1 PUSH1 0x1 ADD SWAP1 PUSH1 0x20 ADD DUP1 DUP4 GT PUSH2 0x3D0 JUMPI DUP3 SWAP1 SUB PUSH1 0x1F AND DUP3 ADD SWAP2 JUMPDEST POP POP POP POP PUSH1 0x2 DUP4 ADD SLOAD PUSH1 0x3 SWAP1 SWAP4 ADD SLOAD SWAP2 SWAP3 SWAP2 PUSH1 0x1 PUSH1 0x1 PUSH1 0xA0 SHL SUB DUP2 AND SWAP2 POP PUSH1 0x1 PUSH1 0xA0 SHL SWAP1 DIV PUSH1 0xFF AND DUP6 JUMP JUMPDEST PUSH0 DUP3 GT DUP1 ISZERO PUSH2 0x429 JUMPI POP PUSH1 0x1 SLOAD DUP3 GT ISZERO JUMPDEST PUSH2 0x46A JUMPI PUSH1 0x40 MLOAD PUSH3 0x461BCD PUSH1 0xE5 SHL DUP2 MSTORE PUSH1 0x20 PUSH1 0x4 DUP3 ADD MSTORE PUSH1 0x12 PUSH1 0x24 DUP3 ADD MSTORE PUSH18 0x125B9D985B1A5908191A5C1B1BDB58481251 PUSH1 0x72 SHL PUSH1 0x44 DUP3 ADD MSTORE PUSH1 0x64 ADD PUSH2 0x11D JUMP JUMPDEST PUSH0 DUP3 DUP2 MSTORE PUSH1 0x20 DUP2 DUP2 MSTORE PUSH1 0x40 SWAP2 DUP3 SWAP1 KECCAK256 PUSH1 0x3 ADD DUP1 SLOAD PUSH1 0xFF PUSH1 0xA0 SHL NOT AND PUSH1 0x1 PUSH1 0xA0 SHL DUP6 ISZERO ISZERO SWAP1 DUP2 MUL SWAP2 SWAP1 SWAP2 OR SWAP1 SWAP2 SSTORE DUP3 MLOAD DUP6 DUP2 MSTORE SWAP2 DUP3 ADD MSTORE PUSH32 0xEFEB469EEFCBD7A1026CA487B36F4A14A170869E4C77C5DD3C0673DF165EF6B SWAP2 ADD PUSH1 0x40 MLOAD DUP1 SWAP2 SUB SWAP1 LOG1 POP POP JUMP JUMPDEST PUSH1 0x60 DUP1 PUSH0 PUSH0 PUSH0 PUSH0 DUP7 GT DUP1 ISZERO PUSH2 0x4E6 JUMPI POP PUSH1 0x1 SLOAD DUP7 GT ISZERO JUMPDEST PUSH2 0x527 JUMPI PUSH1 0x40 MLOAD PUSH3 0x461BCD PUSH1 0xE5 SHL DUP2 MSTORE PUSH1 0x20 PUSH1 0x4 DUP3 ADD MSTORE PUSH1 0x12 PUSH1 0x24 DUP3 ADD MSTORE PUSH18 0x125B9D985B1A5908191A5C1B1BDB58481251 PUSH1 0x72 SHL PUSH1 0x44 DUP3 ADD MSTORE PUSH1 0x64 ADD PUSH2 0x11D JUMP JUMPDEST PUSH0 DUP7 DUP2 MSTORE PUSH1 0x20 DUP2 SWAP1 MSTORE PUSH1 0x40 SWAP1 KECCAK256 PUSH1 0x2 DUP2 ADD SLOAD PUSH1 0x3 DUP3 ADD SLOAD DUP3 SLOAD DUP4 SWAP3 PUSH1 0x1 DUP5 ADD SWAP3 SWAP1 SWAP2 PUSH1 0x1 PUSH1 0x1 PUSH1 0xA0 SHL SUB DUP3 AND SWAP2 PUSH1 0x1 PUSH1 0xA0 SHL SWAP1 DIV PUSH1 0xFF AND SWAP1 DUP6 SWAP1 PUSH2 0x56A SWAP1 PUSH2 0x87B JUMP JUMPDEST DUP1 PUSH1 0x1F ADD PUSH1 0x20 DUP1 SWAP2 DIV MUL PUSH1 0x20 ADD PUSH1 0x40 MLOAD SWAP1 DUP2 ADD PUSH1 0x40 MSTORE DUP1 SWAP3 SWAP2 SWAP1 DUP2 DUP2 MSTORE PUSH1 0x20 ADD DUP3 DUP1 SLOAD PUSH2 0x596 SWAP1 PUSH2 0x87B JUMP JUMPDEST DUP1 ISZERO PUSH2 0x5E1 JUMPI DUP1 PUSH1 0x1F LT PUSH2 0x5B8 JUMPI PUSH2 0x100 DUP1 DUP4 SLOAD DIV MUL DUP4 MSTORE SWAP2 PUSH1 0x20 ADD SWAP2 PUSH2 0x5E1 JUMP JUMPDEST DUP3 ADD SWAP2 SWAP1 PUSH0 MSTORE PUSH1 0x20 PUSH0 KECCAK256 SWAP1 JUMPDEST DUP2 SLOAD DUP2 MSTORE SWAP1 PUSH1 0x1 ADD SWAP1 PUSH1 0x20 ADD DUP1 DUP4 GT PUSH2 0x5C4 JUMPI DUP3 SWAP1 SUB PUSH1 0x1F AND DUP3 ADD SWAP2 JUMPDEST POP POP POP POP POP SWAP5 POP DUP4 DUP1 SLOAD PUSH2 0x5F4 SWAP1 PUSH2 0x87B JUMP JUMPDEST DUP1 PUSH1 0x1F ADD PUSH1 0x20 DUP1 SWAP2 DIV MUL PUSH1 0x20 ADD PUSH1 0x40 MLOAD SWAP1 DUP2 ADD PUSH1 0x40 MSTORE DUP1 SWAP3 SWAP2 SWAP1 DUP2 DUP2 MSTORE PUSH1 0x20 ADD DUP3 DUP1 SLOAD PUSH2 0x620 SWAP1 PUSH2 0x87B JUMP JUMPDEST DUP1 ISZERO PUSH2 0x66B JUMPI DUP1 PUSH1 0x1F LT PUSH2 0x642 JUMPI PUSH2 0x100 DUP1 DUP4 SLOAD DIV MUL DUP4 MSTORE SWAP2 PUSH1 0x20 ADD SWAP2 PUSH2 0x66B JUMP JUMPDEST DUP3 ADD SWAP2 SWAP1 PUSH0 MSTORE PUSH1 0x20 PUSH0 KECCAK256 SWAP1 JUMPDEST DUP2 SLOAD DUP2 MSTORE SWAP1 PUSH1 0x1 ADD SWAP1 PUSH1 0x20 ADD DUP1 DUP4 GT PUSH2 0x64E JUMPI DUP3 SWAP1 SUB PUSH1 0x1F AND DUP3 ADD SWAP2 JUMPDEST POP POP POP POP POP SWAP4 POP SWAP6 POP SWAP6 POP SWAP6 POP SWAP6 POP SWAP6 POP POP SWAP2 SWAP4 SWAP6 SWAP1 SWAP3 SWAP5 POP JUMP JUMPDEST PUSH4 0x4E487B71 PUSH1 0xE0 SHL PUSH0 MSTORE PUSH1 0x41 PUSH1 0x4 MSTORE PUSH1 0x24 PUSH0 REVERT JUMPDEST PUSH0 DUP3 PUSH1 0x1F DUP4 ADD SLT PUSH2 0x6A9 JUMPI PUSH0 PUSH0 REVERT JUMPDEST DUP2 CALLDATALOAD PUSH8 0xFFFFFFFFFFFFFFFF DUP2 GT ISZERO PUSH2 0x6C3 JUMPI PUSH2 0x6C3 PUSH2 0x686 JUMP JUMPDEST PUSH1 0x40 MLOAD PUSH1 0x1F DUP3 ADD PUSH1 0x1F NOT SWAP1 DUP2 AND PUSH1 0x3F ADD AND DUP2 ADD PUSH8 0xFFFFFFFFFFFFFFFF DUP2 GT DUP3 DUP3 LT OR ISZERO PUSH2 0x6F2 JUMPI PUSH2 0x6F2 PUSH2 0x686 JUMP JUMPDEST PUSH1 0x40 MSTORE DUP2 DUP2 MSTORE DUP4 DUP3 ADD PUSH1 0x20 ADD DUP6 LT ISZERO PUSH2 0x709 JUMPI PUSH0 PUSH0 REVERT JUMPDEST DUP2 PUSH1 0x20 DUP6 ADD PUSH1 0x20 DUP4 ADD CALLDATACOPY PUSH0 SWAP2 DUP2 ADD PUSH1 0x20 ADD SWAP2 SWAP1 SWAP2 MSTORE SWAP4 SWAP3 POP POP POP JUMP JUMPDEST PUSH0 PUSH0 PUSH0 PUSH1 0x60 DUP5 DUP7 SUB SLT ISZERO PUSH2 0x737 JUMPI PUSH0 PUSH0 REVERT JUMPDEST DUP4 CALLDATALOAD PUSH8 0xFFFFFFFFFFFFFFFF DUP2 GT ISZERO PUSH2 0x74D JUMPI PUSH0 PUSH0 REVERT JUMPDEST PUSH2 0x759 DUP7 DUP3 DUP8 ADD PUSH2 0x69A JUMP JUMPDEST SWAP4 POP POP PUSH1 0x20 DUP5 ADD CALLDATALOAD PUSH8 0xFFFFFFFFFFFFFFFF DUP2 GT ISZERO PUSH2 0x775 JUMPI PUSH0 PUSH0 REVERT JUMPDEST PUSH2 0x781 DUP7 DUP3 DUP8 ADD PUSH2 0x69A JUMP JUMPDEST SWAP4 SWAP7 SWAP4 SWAP6 POP POP POP POP PUSH1 0x40 SWAP2 SWAP1 SWAP2 ADD CALLDATALOAD SWAP1 JUMP JUMPDEST PUSH0 PUSH1 0x20 DUP3 DUP5 SUB SLT ISZERO PUSH2 0x7A3 JUMPI PUSH0 PUSH0 REVERT JUMPDEST POP CALLDATALOAD SWAP2 SWAP1 POP JUMP JUMPDEST PUSH0 DUP2 MLOAD DUP1 DUP5 MSTORE DUP1 PUSH1 0x20 DUP5 ADD PUSH1 0x20 DUP7 ADD MCOPY PUSH0 PUSH1 0x20 DUP3 DUP7 ADD ADD MSTORE PUSH1 0x20 PUSH1 0x1F NOT PUSH1 0x1F DUP4 ADD AND DUP6 ADD ADD SWAP2 POP POP SWAP3 SWAP2 POP POP JUMP JUMPDEST PUSH1 0xA0 DUP2 MSTORE PUSH0 PUSH2 0x7EA PUSH1 0xA0 DUP4 ADD DUP9 PUSH2 0x7AA JUMP JUMPDEST DUP3 DUP2 SUB PUSH1 0x20 DUP5 ADD MSTORE PUSH2 0x7FC DUP2 DUP9 PUSH2 0x7AA JUMP JUMPDEST PUSH1 0x40 DUP5 ADD SWAP7 SWAP1 SWAP7 MSTORE POP POP PUSH1 0x1 PUSH1 0x1 PUSH1 0xA0 SHL SUB SWAP3 SWAP1 SWAP3 AND PUSH1 0x60 DUP4 ADD MSTORE ISZERO ISZERO PUSH1 0x80 SWAP1 SWAP2 ADD MSTORE SWAP3 SWAP2 POP POP JUMP JUMPDEST PUSH0 PUSH0 PUSH1 0x40 DUP4 DUP6 SUB SLT ISZERO PUSH2 0x836 JUMPI PUSH0 PUSH0 REVERT JUMPDEST DUP3 CALLDATALOAD SWAP2 POP PUSH1 0x20 DUP4 ADD CALLDATALOAD DUP1 ISZERO ISZERO DUP2 EQ PUSH2 0x84C JUMPI PUSH0 PUSH0 REVERT JUMPDEST DUP1 SWAP2 POP POP SWAP3 POP SWAP3 SWAP1 POP JUMP JUMPDEST PUSH0 PUSH1 0x1 DUP3 ADD PUSH2 0x874 JUMPI PUSH4 0x4E487B71 PUSH1 0xE0 SHL PUSH0 MSTORE PUSH1 0x11 PUSH1 0x4 MSTORE PUSH1 0x24 PUSH0 REVERT JUMPDEST POP PUSH1 0x1 ADD SWAP1 JUMP JUMPDEST PUSH1 0x1 DUP2 DUP2 SHR SWAP1 DUP3 AND DUP1 PUSH2 0x88F JUMPI PUSH1 0x7F DUP3 AND SWAP2 POP JUMPDEST PUSH1 0x20 DUP3 LT DUP2 SUB PUSH2 0x8AD JUMPI PUSH4 0x4E487B71 PUSH1 0xE0 SHL PUSH0 MSTORE PUSH1 0x22 PUSH1 0x4 MSTORE PUSH1 0x24 PUSH0 REVERT JUMPDEST POP SWAP2 SWAP1 POP JUMP JUMPDEST PUSH1 0x1F DUP3 GT ISZERO PUSH2 0x8FA JUMPI DUP1 PUSH0 MSTORE PUSH1 0x20 PUSH0 KECCAK256 PUSH1 0x1F DUP5 ADD PUSH1 0x5 SHR DUP2 ADD PUSH1 0x20 DUP6 LT ISZERO PUSH2 0x8D8 JUMPI POP DUP1 JUMPDEST PUSH1 0x1F DUP5 ADD PUSH1 0x5 SHR DUP3 ADD SWAP2 POP JUMPDEST DUP2 DUP2 LT ISZERO PUSH2 0x8F7 JUMPI PUSH0 DUP2 SSTORE PUSH1 0x1 ADD PUSH2 0x8E4 JUMP JUMPDEST POP POP JUMPDEST POP POP POP JUMP JUMPDEST DUP2 MLOAD PUSH8 0xFFFFFFFFFFFFFFFF DUP2 GT ISZERO PUSH2 0x919 JUMPI PUSH2 0x919 PUSH2 0x686 JUMP JUMPDEST PUSH2 0x92D DUP2 PUSH2 0x927 DUP5 SLOAD PUSH2 0x87B JUMP JUMPDEST DUP5 PUSH2 0x8B3 JUMP JUMPDEST PUSH1 0x20 PUSH1 0x1F DUP3 GT PUSH1 0x1 DUP2 EQ PUSH2 0x95F JUMPI PUSH0 DUP4 ISZERO PUSH2 0x948 JUMPI POP DUP5 DUP3 ADD MLOAD JUMPDEST PUSH0 NOT PUSH1 0x3 DUP6 SWAP1 SHL SHR NOT AND PUSH1 0x1 DUP5 SWAP1 SHL OR DUP5 SSTORE PUSH2 0x8F7 JUMP JUMPDEST PUSH0 DUP5 DUP2 MSTORE PUSH1 0x20 DUP2 KECCAK256 PUSH1 0x1F NOT DUP6 AND SWAP2 JUMPDEST DUP3 DUP2 LT ISZERO PUSH2 0x98E JUMPI DUP8 DUP6 ADD MLOAD DUP3 SSTORE PUSH1 0x20 SWAP5 DUP6 ADD SWAP5 PUSH1 0x1 SWAP1 SWAP3 ADD SWAP2 ADD PUSH2 0x96E JUMP JUMPDEST POP DUP5 DUP3 LT ISZERO PUSH2 0x9AB JUMPI DUP7 DUP5 ADD MLOAD PUSH0 NOT PUSH1 0x3 DUP8 SWAP1 SHL PUSH1 0xF8 AND SHR NOT AND DUP2 SSTORE JUMPDEST POP POP POP POP PUSH1 0x1 SWAP1 DUP2 SHL ADD SWAP1 SSTORE POP JUMP JUMPDEST DUP6 DUP2 MSTORE PUSH1 0xA0 PUSH1 0x20 DUP3 ADD MSTORE PUSH0 PUSH2 0x9D2 PUSH1 0xA0 DUP4 ADD DUP8 PUSH2 0x7AA JUMP JUMPDEST DUP3 DUP2 SUB PUSH1 0x40 DUP5 ADD MSTORE PUSH2 0x9E4 DUP2 DUP8 PUSH2 0x7AA JUMP JUMPDEST PUSH1 0x60 DUP5 ADD SWAP6 SWAP1 SWAP6 MSTORE POP POP PUSH1 0x1 PUSH1 0x1 PUSH1 0xA0 SHL SUB SWAP2 SWAP1 SWAP2 AND PUSH1 0x80 SWAP1 SWAP2 ADD MSTORE SWAP4 SWAP3 POP POP POP JUMP INVALID LOG2 PUSH5 0x6970667358 0x22 SLT KECCAK256 SWAP10 ADDRESS DUP2 TLOAD DUP5 SWAP8 0x28 DUP4 0xCE SWAP3 SWAP14 DUP10 DUP6 0x24 MSIZE JUMPDEST 0xD4 0xC 0xC8 LOG0 0x29 EXTSTATICCALL 0x2E PUSH17 0x451589862E18441C64736F6C634300081D STOP CALLER "
		},
		"gasEstimates": {
			"creation": {
				"codeDepositCost": "524200",
				"executionCost": "554",
				"totalCost": "524754"
			},
			"external": {
				"diplomaCount()": "2316",
				"diplomas(uint256)": "infinite",
				"getDiploma(uint256)": "infinite",
				"issueDiploma(string,string,uint256)": "infinite",
				"verifyDiploma(uint256,bool)": "28160"
			}
		},
		"methodIdentifiers": {
			"diplomaCount()": "6920613f",
			"diplomas(uint256)": "35dfc1c3",
			"getDiploma(uint256)": "b1152847",
			"issueDiploma(string,string,uint256)": "1f80e925",
			"verifyDiploma(uint256,bool)": "9b31b2f4"
		}
	},
	"abi": [
		{
			"anonymous": false,
			"inputs": [
				{
					"indexed": false,
					"internalType": "uint256",
					"name": "diplomaId",
					"type": "uint256"
				},
				{
					"indexed": false,
					"internalType": "string",
					"name": "degree",
					"type": "string"
				},
				{
					"indexed": false,
					"internalType": "string",
					"name": "studentName",
					"type": "string"
				},
				{
					"indexed": false,
					"internalType": "uint256",
					"name": "graduationYear",
					"type": "uint256"
				},
				{
					"indexed": false,
					"internalType": "address",
					"name": "university",
					"type": "address"
				}
			],
			"name": "DiplomaIssued",
			"type": "event"
		},
		{
			"anonymous": false,
			"inputs": [
				{
					"indexed": false,
					"internalType": "uint256",
					"name": "diplomaId",
					"type": "uint256"
				},
				{
					"indexed": false,
					"internalType": "bool",
					"name": "verified",
					"type": "bool"
				}
			],
			"name": "DiplomaVerified",
			"type": "event"
		},
		{
			"inputs": [],
			"name": "diplomaCount",
			"outputs": [
				{
					"internalType": "uint256",
					"name": "",
					"type": "uint256"
				}
			],
			"stateMutability": "view",
			"type": "function"
		},
		{
			"inputs": [
				{
					"internalType": "uint256",
					"name": "",
					"type": "uint256"
				}
			],
			"name": "diplomas",
			"outputs": [
				{
					"internalType": "string",
					"name": "degree",
					"type": "string"
				},
				{
					"internalType": "string",
					"name": "studentName",
					"type": "string"
				},
				{
					"internalType": "uint256",
					"name": "graduationYear",
					"type": "uint256"
				},
				{
					"internalType": "address",
					"name": "university",
					"type": "address"
				},
				{
					"internalType": "bool",
					"name": "verified",
					"type": "bool"
				}
			],
			"stateMutability": "view",
			"type": "function"
		},
		{
			"inputs": [
				{
					"internalType": "uint256",
					"name": "_diplomaId",
					"type": "uint256"
				}
			],
			"name": "getDiploma",
			"outputs": [
				{
					"internalType": "string",
					"name": "degree",
					"type": "string"
				},
				{
					"internalType": "string",
					"name": "studentName",
					"type": "string"
				},
				{
					"internalType": "uint256",
					"name": "graduationYear",
					"type": "uint256"
				},
				{
					"internalType": "address",
					"name": "university",
					"type": "address"
				},
				{
					"internalType": "bool",
					"name": "verified",
					"type": "bool"
				}
			],
			"stateMutability": "view",
			"type": "function"
		},
		{
			"inputs": [
				{
					"internalType": "string",
					"name": "_degree",
					"type": "string"
				},
				{
					"internalType": "string",
					"name": "_studentName",
					"type": "string"
				},
				{
					"internalType": "uint256",
					"name": "_graduationYear",
					"type": "uint256"
				}
			],
			"name": "issueDiploma",
			"outputs": [],
			"stateMutability": "nonpayable",
			"type": "function"
		},
		{
			"inputs": [
				{
					"internalType": "uint256",
					"name": "_diplomaId",
					"type": "uint256"
				},
				{
					"internalType": "bool",
					"name": "_verified",
					"type": "bool"
				}
			],
			"name": "verifyDiploma",
			"outputs": [],
			"stateMutability": "nonpayable",
			"type": "function"
		}
	]
}