{
	"data": {
		"bytecode": {
			"linkReferences": {},
			"object": "6080604052348015600e575f5ffd5b50610a018061001c5f395ff3fe608060405234801561000f575f5ffd5b5060043610610060575f3560e01c80630a3e6fc2146100645780632e4ea4c414610080578063328fb510146100a35780634884acd9146100b857806369f0e05f146100cb578063a11ad097146100de575b5f5ffd5b61006d60015481565b6040519081526020015b60405180910390f35b61009361008e366004610696565b6100f1565b60405161007794939291906106db565b6100b66100b136600461070b565b6101eb565b005b6100b66100c6366004610696565b610392565b6100936100d9366004610696565b610478565b6100b66100ec36600461073f565b61052a565b60605f5f5f5f8511801561010757506001548511155b61012c5760405162461bcd60e51b8152600401610123906107f4565b60405180910390fd5b5f85815260208190526040902060018101546002820154600383015483548493929160ff1690849061015d9061081f565b80601f01602080910402602001604051908101604052809291908181526020018280546101899061081f565b80156101d45780601f106101ab576101008083540402835291602001916101d4565b820191905f5260205f20905b8154815290600101906020018083116101b757829003601f168201915b505050505093509450945094509450509193509193565b5f821180156101fc57506001548211155b6102185760405162461bcd60e51b8152600401610123906107f4565b5f81116102675760405162461bcd60e51b815260206004820181905260248201527f416d6f756e74206d7573742062652067726561746572207468616e207a65726f6044820152606401610123565b5f8281526020819052604090206003015460ff16156102c85760405162461bcd60e51b815260206004820152601b60248201527f42756467657420697320616c72656164792066696e616c697a656400000000006044820152606401610123565b5f82815260208190526040902060018101546002909101546102eb90839061086b565b111561032f5760405162461bcd60e51b8152602060048201526013602482015272125b9cdd59999a58da595b9d08189d5919d95d606a1b6044820152606401610123565b5f828152602081905260408120600201805483929061034f90849061086b565b909155505060408051838152602081018390527fde80d32b94bdd3f6f6d0439c79b0c047b23497d6281c4262f8b0efed58f3f4db91015b60405180910390a15050565b5f811180156103a357506001548111155b6103bf5760405162461bcd60e51b8152600401610123906107f4565b5f8181526020819052604090206003015460ff16156104205760405162461bcd60e51b815260206004820152601b60248201527f42756467657420697320616c72656164792066696e616c697a656400000000006044820152606401610123565b5f8181526020819052604090819020600301805460ff19166001179055517f47ef7bdbe391100996183e0cd3cbba518170ef20ebabba936a56342958e904e89061046d9083815260200190565b60405180910390a150565b5f602081905290815260409020805481906104929061081f565b80601f01602080910402602001604051908101604052809291908181526020018280546104be9061081f565b80156105095780601f106104e057610100808354040283529160200191610509565b820191905f5260205f20905b8154815290600101906020018083116104ec57829003601f168201915b50505050600183015460028401546003909401549293909290915060ff1684565b5f82511161057a5760405162461bcd60e51b815260206004820152601c60248201527f50726f6a656374206e616d652063616e6e6f7420626520656d707479000000006044820152606401610123565b5f81116105d85760405162461bcd60e51b815260206004820152602660248201527f546f74616c20627564676574206d7573742062652067726561746572207468616044820152656e207a65726f60d01b6064820152608401610123565b60018054905f6105e783610884565b90915550506040805160808101825283815260208082018490525f82840181905260608301819052600154815290819052919091208151819061062a90826108e8565b5060208201518160010155604082015181600201556060820151816003015f6101000a81548160ff0219169083151502179055509050507f4fc2983b7139ceaab88f43e9ce49b23717555d62f17c6ebb621928ea846ef8a66001548383604051610386939291906109a3565b5f602082840312156106a6575f5ffd5b5035919050565b5f81518084528060208401602086015e5f602082860101526020601f19601f83011685010191505092915050565b608081525f6106ed60808301876106ad565b60208301959095525060408101929092521515606090910152919050565b5f5f6040838503121561071c575f5ffd5b50508035926020909101359150565b634e487b7160e01b5f52604160045260245ffd5b5f5f60408385031215610750575f5ffd5b823567ffffffffffffffff811115610766575f5ffd5b8301601f81018513610776575f5ffd5b803567ffffffffffffffff8111156107905761079061072b565b604051601f8201601f19908116603f0116810167ffffffffffffffff811182821017156107bf576107bf61072b565b6040528181528282016020018710156107d6575f5ffd5b816020840160208301375f6020928201830152969401359450505050565b602080825260119082015270125b9d985b1a5908189d5919d95d081251607a1b604082015260600190565b600181811c9082168061083357607f821691505b60208210810361085157634e487b7160e01b5f52602260045260245ffd5b50919050565b634e487b7160e01b5f52601160045260245ffd5b8082018082111561087e5761087e610857565b92915050565b5f6001820161089557610895610857565b5060010190565b601f8211156108e357805f5260205f20601f840160051c810160208510156108c15750805b601f840160051c820191505b818110156108e0575f81556001016108cd565b50505b505050565b815167ffffffffffffffff8111156109025761090261072b565b61091681610910845461081f565b8461089c565b6020601f821160018114610948575f83156109315750848201515b5f19600385901b1c1916600184901b1784556108e0565b5f84815260208120601f198516915b828110156109775787850151825560209485019460019092019101610957565b508482101561099457868401515f19600387901b60f8161c191681555b50505050600190811b01905550565b838152606060208201525f6109bb60608301856106ad565b905082604083015294935050505056fea2646970667358221220e29acec300e4fac364db49ba5c1790b9c68917c7d83741130180a71873384b6964736f6c634300081d0033",
			"opcodes": "PUSH1 0x80 PUSH1 0x40 MSTORE CALLVALUE DUP1 ISZERO PUSH1 0xE JUMPI PUSH0 PUSH0 REVERT JUMPDEST POP PUSH2 0xA01 DUP1 PUSH2 0x1C PUSH0 CODECOPY PUSH0 RETURN INVALID PUSH1 0x80 PUSH1 0x40 MSTORE CALLVALUE DUP1 ISZERO PUSH2 0xF JUMPI PUSH0 PUSH0 REVERT JUMPDEST POP PUSH1 0x4 CALLDATASIZE LT PUSH2 0x60 JUMPI PUSH0 CALLDATALOAD PUSH1 0xE0 SHR DUP1 PUSH4 0xA3E6FC2 EQ PUSH2 0x64 JUMPI DUP1 PUSH4 0x2E4EA4C4 EQ PUSH2 0x80 JUMPI DUP1 PUSH4 0x328FB510 EQ PUSH2 0xA3 JUMPI DUP1 PUSH4 0x4884ACD9 EQ PUSH2 0xB8 JUMPI DUP1 PUSH4 0x69F0E05F EQ PUSH2 0xCB JUMPI DUP1 PUSH4 0xA11AD097 EQ PUSH2 0xDE JUMPI JUMPDEST PUSH0 PUSH0 REVERT JUMPDEST PUSH2 0x6D PUSH1 0x1 SLOAD DUP2 JUMP JUMPDEST PUSH1 0x40 MLOAD SWAP1 DUP2 MSTORE PUSH1 0x20 ADD JUMPDEST PUSH1 0x40 MLOAD DUP1 SWAP2 SUB SWAP1 RETURN JUMPDEST PUSH2 0x93 PUSH2 0x8E CALLDATASIZE PUSH1 0x4 PUSH2 0x696 JUMP JUMPDEST PUSH2 0xF1 JUMP JUMPDEST PUSH1 0x40 MLOAD PUSH2 0x77 SWAP5 SWAP4 SWAP3 SWAP2 SWAP1 PUSH2 0x6DB JUMP JUMPDEST PUSH2 0xB6 PUSH2 0xB1 CALLDATASIZE PUSH1 0x4 PUSH2 0x70B JUMP JUMPDEST PUSH2 0x1EB JUMP JUMPDEST STOP JUMPDEST PUSH2 0xB6 PUSH2 0xC6 CALLDATASIZE PUSH1 0x4 PUSH2 0x696 JUMP JUMPDEST PUSH2 0x392 JUMP JUMPDEST PUSH2 0x93 PUSH2 0xD9 CALLDATASIZE PUSH1 0x4 PUSH2 0x696 JUMP JUMPDEST PUSH2 0x478 JUMP JUMPDEST PUSH2 0xB6 PUSH2 0xEC CALLDATASIZE PUSH1 0x4 PUSH2 0x73F JUMP JUMPDEST PUSH2 0x52A JUMP JUMPDEST PUSH1 0x60 PUSH0 PUSH0 PUSH0 PUSH0 DUP6 GT DUP1 ISZERO PUSH2 0x107 JUMPI POP PUSH1 0x1 SLOAD DUP6 GT ISZERO JUMPDEST PUSH2 0x12C JUMPI PUSH1 0x40 MLOAD PUSH3 0x461BCD PUSH1 0xE5 SHL DUP2 MSTORE PUSH1 0x4 ADD PUSH2 0x123 SWAP1 PUSH2 0x7F4 JUMP JUMPDEST PUSH1 0x40 MLOAD DUP1 SWAP2 SUB SWAP1 REVERT JUMPDEST PUSH0 DUP6 DUP2 MSTORE PUSH1 0x20 DUP2 SWAP1 MSTORE PUSH1 0x40 SWAP1 KECCAK256 PUSH1 0x1 DUP2 ADD SLOAD PUSH1 0x2 DUP3 ADD SLOAD PUSH1 0x3 DUP4 ADD SLOAD DUP4 SLOAD DUP5 SWAP4 SWAP3 SWAP2 PUSH1 0xFF AND SWAP1 DUP5 SWAP1 PUSH2 0x15D SWAP1 PUSH2 0x81F JUMP JUMPDEST DUP1 PUSH1 0x1F ADD PUSH1 0x20 DUP1 SWAP2 DIV MUL PUSH1 0x20 ADD PUSH1 0x40 MLOAD SWAP1 DUP2 ADD PUSH1 0x40 MSTORE DUP1 SWAP3 SWAP2 SWAP1 DUP2 DUP2 MSTORE PUSH1 0x20 ADD DUP3 DUP1 SLOAD PUSH2 0x189 SWAP1 PUSH2 0x81F JUMP JUMPDEST DUP1 ISZERO PUSH2 0x1D4 JUMPI DUP1 PUSH1 0x1F LT PUSH2 0x1AB JUMPI PUSH2 0x100 DUP1 DUP4 SLOAD DIV MUL DUP4 MSTORE SWAP2 PUSH1 0x20 ADD SWAP2 PUSH2 0x1D4 JUMP JUMPDEST DUP3 ADD SWAP2 SWAP1 PUSH0 MSTORE PUSH1 0x20 PUSH0 KECCAK256 SWAP1 JUMPDEST DUP2 SLOAD DUP2 MSTORE SWAP1 PUSH1 0x1 ADD SWAP1 PUSH1 0x20 ADD DUP1 DUP4 GT PUSH2 0x1B7 JUMPI DUP3 SWAP1 SUB PUSH1 0x1F AND DUP3 ADD SWAP2 JUMPDEST POP POP POP POP POP SWAP4 POP SWAP5 POP SWAP5 POP SWAP5 POP SWAP5 POP POP SWAP2 SWAP4 POP SWAP2 SWAP4 JUMP JUMPDEST PUSH0 DUP3 GT DUP1 ISZERO PUSH2 0x1FC JUMPI POP PUSH1 0x1 SLOAD DUP3 GT ISZERO JUMPDEST PUSH2 0x218 JUMPI PUSH1 0x40 MLOAD PUSH3 0x461BCD PUSH1 0xE5 SHL DUP2 MSTORE PUSH1 0x4 ADD PUSH2 0x123 SWAP1 PUSH2 0x7F4 JUMP JUMPDEST PUSH0 DUP2 GT PUSH2 0x267 JUMPI PUSH1 0x40 MLOAD PUSH3 0x461BCD PUSH1 0xE5 SHL DUP2 MSTORE PUSH1 0x20 PUSH1 0x4 DUP3 ADD DUP2 SWAP1 MSTORE PUSH1 0x24 DUP3 ADD MSTORE PUSH32 0x416D6F756E74206D7573742062652067726561746572207468616E207A65726F PUSH1 0x44 DUP3 ADD MSTORE PUSH1 0x64 ADD PUSH2 0x123 JUMP JUMPDEST PUSH0 DUP3 DUP2 MSTORE PUSH1 0x20 DUP2 SWAP1 MSTORE PUSH1 0x40 SWAP1 KECCAK256 PUSH1 0x3 ADD SLOAD PUSH1 0xFF AND ISZERO PUSH2 0x2C8 JUMPI PUSH1 0x40 MLOAD PUSH3 0x461BCD PUSH1 0xE5 SHL DUP2 MSTORE PUSH1 0x20 PUSH1 0x4 DUP3 ADD MSTORE PUSH1 0x1B PUSH1 0x24 DUP3 ADD MSTORE PUSH32 0x42756467657420697320616C72656164792066696E616C697A65640000000000 PUSH1 0x44 DUP3 ADD MSTORE PUSH1 0x64 ADD PUSH2 0x123 JUMP JUMPDEST PUSH0 DUP3 DUP2 MSTORE PUSH1 0x20 DUP2 SWAP1 MSTORE PUSH1 0x40 SWAP1 KECCAK256 PUSH1 0x1 DUP2 ADD SLOAD PUSH1 0x2 SWAP1 SWAP2 ADD SLOAD PUSH2 0x2EB SWAP1 DUP4 SWAP1 PUSH2 0x86B JUMP JUMPDEST GT ISZERO PUSH2 0x32F JUMPI PUSH1 0x40 MLOAD PUSH3 0x461BCD PUSH1 0xE5 SHL DUP2 MSTORE PUSH1 0x20 PUSH1 0x4 DUP3 ADD MSTORE PUSH1 0x13 PUSH1 0x24 DUP3 ADD MSTORE PUSH19 0x125B9CDD59999A58DA595B9D08189D5919D95D PUSH1 0x6A SHL PUSH1 0x44 DUP3 ADD MSTORE PUSH1 0x64 ADD PUSH2 0x123 JUMP JUMPDEST PUSH0 DUP3 DUP2 MSTORE PUSH1 0x20 DUP2 SWAP1 MSTORE PUSH1 0x40 DUP2 KECCAK256 PUSH1 0x2 ADD DUP1 SLOAD DUP4 SWAP3 SWAP1 PUSH2 0x34F SWAP1 DUP5 SWAP1 PUSH2 0x86B JUMP JUMPDEST SWAP1 SWAP2 SSTORE POP POP PUSH1 0x40 DUP1 MLOAD DUP4 DUP2 MSTORE PUSH1 0x20 DUP2 ADD DUP4 SWAP1 MSTORE PUSH32 0xDE80D32B94BDD3F6F6D0439C79B0C047B23497D6281C4262F8B0EFED58F3F4DB SWAP2 ADD JUMPDEST PUSH1 0x40 MLOAD DUP1 SWAP2 SUB SWAP1 LOG1 POP POP JUMP JUMPDEST PUSH0 DUP2 GT DUP1 ISZERO PUSH2 0x3A3 JUMPI POP PUSH1 0x1 SLOAD DUP2 GT ISZERO JUMPDEST PUSH2 0x3BF JUMPI PUSH1 0x40 MLOAD PUSH3 0x461BCD PUSH1 0xE5 SHL DUP2 MSTORE PUSH1 0x4 ADD PUSH2 0x123 SWAP1 PUSH2 0x7F4 JUMP JUMPDEST PUSH0 DUP2 DUP2 MSTORE PUSH1 0x20 DUP2 SWAP1 MSTORE PUSH1 0x40 SWAP1 KECCAK256 PUSH1 0x3 ADD SLOAD PUSH1 0xFF AND ISZERO PUSH2 0x420 JUMPI PUSH1 0x40 MLOAD PUSH3 0x461BCD PUSH1 0xE5 SHL DUP2 MSTORE PUSH1 0x20 PUSH1 0x4 DUP3 ADD MSTORE PUSH1 0x1B PUSH1 0x24 DUP3 ADD MSTORE PUSH32 0x42756467657420697320616C72656164792066696E616C697A65640000000000 PUSH1 0x44 DUP3 ADD MSTORE PUSH1 0x64 ADD PUSH2 0x123 JUMP JUMPDEST PUSH0 DUP2 DUP2 MSTORE PUSH1 0x20 DUP2 SWAP1 MSTORE PUSH1 0x40 SWAP1 DUP2 SWAP1 KECCAK256 PUSH1 0x3 ADD DUP1 SLOAD PUSH1 0xFF NOT AND PUSH1 0x1 OR SWAP1 SSTORE MLOAD PUSH32 0x47EF7BDBE391100996183E0CD3CBBA518170EF20EBABBA936A56342958E904E8 SWAP1 PUSH2 0x46D SWAP1 DUP4 DUP2 MSTORE PUSH1 0x20 ADD SWAP1 JUMP JUMPDEST PUSH1 0x40 MLOAD DUP1 SWAP2 SUB SWAP1 LOG1 POP JUMP JUMPDEST PUSH0 PUSH1 0x20 DUP2 SWAP1 MSTORE SWAP1 DUP2 MSTORE PUSH1 0x40 SWAP1 KECCAK256 DUP1 SLOAD DUP2 SWAP1 PUSH2 0x492 SWAP1 PUSH2 0x81F JUMP JUMPDEST DUP1 PUSH1 0x1F ADD PUSH1 0x20 DUP1 SWAP2 DIV MUL PUSH1 0x20 ADD PUSH1 0x40 MLOAD SWAP1 DUP2 ADD PUSH1 0x40 MSTORE DUP1 SWAP3 SWAP2 SWAP1 DUP2 DUP2 MSTORE PUSH1 0x20 ADD DUP3 DUP1 SLOAD PUSH2 0x4BE SWAP1 PUSH2 0x81F JUMP JUMPDEST DUP1 ISZERO PUSH2 0x509 JUMPI DUP1 PUSH1 0x1F LT PUSH2 0x4E0 JUMPI PUSH2 0x100 DUP1 DUP4 SLOAD DIV MUL DUP4 MSTORE SWAP2 PUSH1 0x20 ADD SWAP2 PUSH2 0x509 JUMP JUMPDEST DUP3 ADD SWAP2 SWAP1 PUSH0 MSTORE PUSH1 0x20 PUSH0 KECCAK256 SWAP1 JUMPDEST DUP2 SLOAD DUP2 MSTORE SWAP1 PUSH1 0x1 ADD SWAP1 PUSH1 0x20 ADD DUP1 DUP4 GT PUSH2 0x4EC JUMPI DUP3 SWAP1 SUB PUSH1 0x1F AND DUP3 ADD SWAP2 JUMPDEST POP POP POP POP PUSH1 0x1 DUP4 ADD SLOAD PUSH1 0x2 DUP5 ADD SLOAD PUSH1 0x3 SWAP1 SWAP5 ADD SLOAD SWAP3 SWAP4 SWAP1 SWAP3 SWAP1 SWAP2 POP PUSH1 0xFF AND DUP5 JUMP JUMPDEST PUSH0 DUP3 MLOAD GT PUSH2 0x57A JUMPI PUSH1 0x40 MLOAD PUSH3 0x461BCD PUSH1 0xE5 SHL DUP2 MSTORE PUSH1 0x20 PUSH1 0x4 DUP3 ADD MSTORE PUSH1 0x1C PUSH1 0x24 DUP3 ADD MSTORE PUSH32 0x50726F6A656374206E616D652063616E6E6F7420626520656D70747900000000 PUSH1 0x44 DUP3 ADD MSTORE PUSH1 0x64 ADD PUSH2 0x123 JUMP JUMPDEST PUSH0 DUP2 GT PUSH2 0x5D8 JUMPI PUSH1 0x40 MLOAD PUSH3 0x461BCD PUSH1 0xE5 SHL DUP2 MSTORE PUSH1 0x20 PUSH1 0x4 DUP3 ADD MSTORE PUSH1 0x26 PUSH1 0x24 DUP3 ADD MSTORE PUSH32 0x546F74616C20627564676574206D757374206265206772656174657220746861 PUSH1 0x44 DUP3 ADD MSTORE PUSH6 0x6E207A65726F PUSH1 0xD0 SHL PUSH1 0x64 DUP3 ADD MSTORE PUSH1 0x84 ADD PUSH2 0x123 JUMP JUMPDEST PUSH1 0x1 DUP1 SLOAD SWAP1 PUSH0 PUSH2 0x5E7 DUP4 PUSH2 0x884 JUMP JUMPDEST SWAP1 SWAP2 SSTORE POP POP PUSH1 0x40 DUP1 MLOAD PUSH1 0x80 DUP2 ADD DUP3 MSTORE DUP4 DUP2 MSTORE PUSH1 0x20 DUP1 DUP3 ADD DUP5 SWAP1 MSTORE PUSH0 DUP3 DUP5 ADD DUP2 SWAP1 MSTORE PUSH1 0x60 DUP4 ADD DUP2 SWAP1 MSTORE PUSH1 0x1 SLOAD DUP2 MSTORE SWAP1 DUP2 SWAP1 MSTORE SWAP2 SWAP1 SWAP2 KECCAK256 DUP2 MLOAD DUP2 SWAP1 PUSH2 0x62A SWAP1 DUP3 PUSH2 0x8E8 JUMP JUMPDEST POP PUSH1 0x20 DUP3 ADD MLOAD DUP2 PUSH1 0x1 ADD SSTORE PUSH1 0x40 DUP3 ADD MLOAD DUP2 PUSH1 0x2 ADD SSTORE PUSH1 0x60 DUP3 ADD MLOAD DUP2 PUSH1 0x3 ADD PUSH0 PUSH2 0x100 EXP DUP2 SLOAD DUP2 PUSH1 0xFF MUL NOT AND SWAP1 DUP4 ISZERO ISZERO MUL OR SWAP1 SSTORE POP SWAP1 POP POP PUSH32 0x4FC2983B7139CEAAB88F43E9CE49B23717555D62F17C6EBB621928EA846EF8A6 PUSH1 0x1 SLOAD DUP4 DUP4 PUSH1 0x40 MLOAD PUSH2 0x386 SWAP4 SWAP3 SWAP2 SWAP1 PUSH2 0x9A3 JUMP JUMPDEST PUSH0 PUSH1 0x20 DUP3 DUP5 SUB SLT ISZERO PUSH2 0x6A6 JUMPI PUSH0 PUSH0 REVERT JUMPDEST POP CALLDATALOAD SWAP2 SWAP1 POP JUMP JUMPDEST PUSH0 DUP2 MLOAD DUP1 DUP5 MSTORE DUP1 PUSH1 0x20 DUP5 ADD PUSH1 0x20 DUP7 ADD MCOPY PUSH0 PUSH1 0x20 DUP3 DUP7 ADD ADD MSTORE PUSH1 0x20 PUSH1 0x1F NOT PUSH1 0x1F DUP4 ADD AND DUP6 ADD ADD SWAP2 POP POP SWAP3 SWAP2 POP POP JUMP JUMPDEST PUSH1 0x80 DUP2 MSTORE PUSH0 PUSH2 0x6ED PUSH1 0x80 DUP4 ADD DUP8 PUSH2 0x6AD JUMP JUMPDEST PUSH1 0x20 DUP4 ADD SWAP6 SWAP1 SWAP6 MSTORE POP PUSH1 0x40 DUP2 ADD SWAP3 SWAP1 SWAP3 MSTORE ISZERO ISZERO PUSH1 0x60 SWAP1 SWAP2 ADD MSTORE SWAP2 SWAP1 POP JUMP JUMPDEST PUSH0 PUSH0 PUSH1 0x40 DUP4 DUP6 SUB SLT ISZERO PUSH2 0x71C JUMPI PUSH0 PUSH0 REVERT JUMPDEST POP POP DUP1 CALLDATALOAD SWAP3 PUSH1 0x20 SWAP1 SWAP2 ADD CALLDATALOAD SWAP2 POP JUMP JUMPDEST PUSH4 0x4E487B71 PUSH1 0xE0 SHL PUSH0 MSTORE PUSH1 0x41 PUSH1 0x4 MSTORE PUSH1 0x24 PUSH0 REVERT JUMPDEST PUSH0 PUSH0 PUSH1 0x40 DUP4 DUP6 SUB SLT ISZERO PUSH2 0x750 JUMPI PUSH0 PUSH0 REVERT JUMPDEST DUP3 CALLDATALOAD PUSH8 0xFFFFFFFFFFFFFFFF DUP2 GT ISZERO PUSH2 0x766 JUMPI PUSH0 PUSH0 REVERT JUMPDEST DUP4 ADD PUSH1 0x1F DUP2 ADD DUP6 SGT PUSH2 0x776 JUMPI PUSH0 PUSH0 REVERT JUMPDEST DUP1 CALLDATALOAD PUSH8 0xFFFFFFFFFFFFFFFF DUP2 GT ISZERO PUSH2 0x790 JUMPI PUSH2 0x790 PUSH2 0x72B JUMP JUMPDEST PUSH1 0x40 MLOAD PUSH1 0x1F DUP3 ADD PUSH1 0x1F NOT SWAP1 DUP2 AND PUSH1 0x3F ADD AND DUP2 ADD PUSH8 0xFFFFFFFFFFFFFFFF DUP2 GT DUP3 DUP3 LT OR ISZERO PUSH2 0x7BF JUMPI PUSH2 0x7BF PUSH2 0x72B JUMP JUMPDEST PUSH1 0x40 MSTORE DUP2 DUP2 MSTORE DUP3 DUP3 ADD PUSH1 0x20 ADD DUP8 LT ISZERO PUSH2 0x7D6 JUMPI PUSH0 PUSH0 REVERT JUMPDEST DUP2 PUSH1 0x20 DUP5 ADD PUSH1 0x20 DUP4 ADD CALLDATACOPY PUSH0 PUSH1 0x20 SWAP3 DUP3 ADD DUP4 ADD MSTORE SWAP7 SWAP5 ADD CALLDATALOAD SWAP5 POP POP POP POP JUMP JUMPDEST PUSH1 0x20 DUP1 DUP3 MSTORE PUSH1 0x11 SWAP1 DUP3 ADD MSTORE PUSH17 0x125B9D985B1A5908189D5919D95D081251 PUSH1 0x7A SHL PUSH1 0x40 DUP3 ADD MSTORE PUSH1 0x60 ADD SWAP1 JUMP JUMPDEST PUSH1 0x1 DUP2 DUP2 SHR SWAP1 DUP3 AND DUP1 PUSH2 0x833 JUMPI PUSH1 0x7F DUP3 AND SWAP2 POP JUMPDEST PUSH1 0x20 DUP3 LT DUP2 SUB PUSH2 0x851 JUMPI PUSH4 0x4E487B71 PUSH1 0xE0 SHL PUSH0 MSTORE PUSH1 0x22 PUSH1 0x4 MSTORE PUSH1 0x24 PUSH0 REVERT JUMPDEST POP SWAP2 SWAP1 POP JUMP JUMPDEST PUSH4 0x4E487B71 PUSH1 0xE0 SHL PUSH0 MSTORE PUSH1 0x11 PUSH1 0x4 MSTORE PUSH1 0x24 PUSH0 REVERT JUMPDEST DUP1 DUP3 ADD DUP1 DUP3 GT ISZERO PUSH2 0x87E JUMPI PUSH2 0x87E PUSH2 0x857 JUMP JUMPDEST SWAP3 SWAP2 POP POP JUMP JUMPDEST PUSH0 PUSH1 0x1 DUP3 ADD PUSH2 0x895 JUMPI PUSH2 0x895 PUSH2 0x857 JUMP JUMPDEST POP PUSH1 0x1 ADD SWAP1 JUMP JUMPDEST PUSH1 0x1F DUP3 GT ISZERO PUSH2 0x8E3 JUMPI DUP1 PUSH0 MSTORE PUSH1 0x20 PUSH0 KECCAK256 PUSH1 0x1F DUP5 ADD PUSH1 0x5 SHR DUP2 ADD PUSH1 0x20 DUP6 LT ISZERO PUSH2 0x8C1 JUMPI POP DUP1 JUMPDEST PUSH1 0x1F DUP5 ADD PUSH1 0x5 SHR DUP3 ADD SWAP2 POP JUMPDEST DUP2 DUP2 LT ISZERO PUSH2 0x8E0 JUMPI PUSH0 DUP2 SSTORE PUSH1 0x1 ADD PUSH2 0x8CD JUMP JUMPDEST POP POP JUMPDEST POP POP POP JUMP JUMPDEST DUP2 MLOAD PUSH8 0xFFFFFFFFFFFFFFFF DUP2 GT ISZERO PUSH2 0x902 JUMPI PUSH2 0x902 PUSH2 0x72B JUMP JUMPDEST PUSH2 0x916 DUP2 PUSH2 0x910 DUP5 SLOAD PUSH2 0x81F JUMP JUMPDEST DUP5 PUSH2 0x89C JUMP JUMPDEST PUSH1 0x20 PUSH1 0x1F DUP3 GT PUSH1 0x1 DUP2 EQ PUSH2 0x948 JUMPI PUSH0 DUP4 ISZERO PUSH2 0x931 JUMPI POP DUP5 DUP3 ADD MLOAD JUMPDEST PUSH0 NOT PUSH1 0x3 DUP6 SWAP1 SHL SHR NOT AND PUSH1 0x1 DUP5 SWAP1 SHL OR DUP5 SSTORE PUSH2 0x8E0 JUMP JUMPDEST PUSH0 DUP5 DUP2 MSTORE PUSH1 0x20 DUP2 KECCAK256 PUSH1 0x1F NOT DUP6 AND SWAP2 JUMPDEST DUP3 DUP2 LT ISZERO PUSH2 0x977 JUMPI DUP8 DUP6 ADD MLOAD DUP3 SSTORE PUSH1 0x20 SWAP5 DUP6 ADD SWAP5 PUSH1 0x1 SWAP1 SWAP3 ADD SWAP2 ADD PUSH2 0x957 JUMP JUMPDEST POP DUP5 DUP3 LT ISZERO PUSH2 0x994 JUMPI DUP7 DUP5 ADD MLOAD PUSH0 NOT PUSH1 0x3 DUP8 SWAP1 SHL PUSH1 0xF8 AND SHR NOT AND DUP2 SSTORE JUMPDEST POP POP POP POP PUSH1 0x1 SWAP1 DUP2 SHL ADD SWAP1 SSTORE POP JUMP JUMPDEST DUP4 DUP2 MSTORE PUSH1 0x60 PUSH1 0x20 DUP3 ADD MSTORE PUSH0 PUSH2 0x9BB PUSH1 0x60 DUP4 ADD DUP6 PUSH2 0x6AD JUMP JUMPDEST SWAP1 POP DUP3 PUSH1 0x40 DUP4 ADD MSTORE SWAP5 SWAP4 POP POP POP POP JUMP INVALID LOG2 PUSH5 0x6970667358 0x22 SLT KECCAK256 0xE2 SWAP11 0xCE 0xC3 STOP RETF STATICCALL 0xC3 PUSH5 0xDB49BA5C17 SWAP1 0xB9 0xC6 DUP10 OR 0xC7 0xD8 CALLDATACOPY COINBASE SGT ADD DUP1 0xA7 XOR PUSH20 0x384B6964736F6C634300081D0033000000000000 "
		},
		"gasEstimates": {
			"creation": {
				"codeDepositCost": "512200",
				"executionCost": "547",
				"totalCost": "512747"
			},
			"external": {
				"allocateFunds(uint256,uint256)": "infinite",
				"budgetCount()": "2261",
				"budgets(uint256)": "infinite",
				"createBudget(string,uint256)": "infinite",
				"finalizeBudget(uint256)": "29997",
				"getBudget(uint256)": "infinite"
			}
		},
		"methodIdentifiers": {
			"allocateFunds(uint256,uint256)": "328fb510",
			"budgetCount()": "0a3e6fc2",
			"budgets(uint256)": "69f0e05f",
			"createBudget(string,uint256)": "a11ad097",
			"finalizeBudget(uint256)": "4884acd9",
			"getBudget(uint256)": "2e4ea4c4"
		}
	},
	"abi": [
		{
			"anonymous": false,
			"inputs": [
				{
					"indexed": false,
					"internalType": "uint256",
					"name": "budgetId",
					"type": "uint256"
				},
				{
					"indexed": false,
					"internalType": "uint256",
					"name": "amount",
					"type": "uint256"
				}
			],
			"name": "AllocationMade",
			"type": "event"
		},
		{
			"anonymous": false,
			"inputs": [
				{
					"indexed": false,
					"internalType": "uint256",
					"name": "budgetId",
					"type": "uint256"
				},
				{
					"indexed": false,
					"internalType": "string",
					"name": "projectName",
					"type": "string"
				},
				{
					"indexed": false,
					"internalType": "uint256",
					"name": "totalBudget",
					"type": "uint256"
				}
			],
			"name": "BudgetCreated",
			"type": "event"
		},
		{
			"anonymous": false,
			"inputs": [
				{
					"indexed": false,
					"internalType": "uint256",
					"name": "budgetId",
					"type": "uint256"
				}
			],
			"name": "BudgetFinalized",
			"type": "event"
		},
		{
			"inputs": [
				{
					"internalType": "uint256",
					"name": "_budgetId",
					"type": "uint256"
				},
				{
					"internalType": "uint256",
					"name": "_amount",
					"type": "uint256"
				}
			],
			"name": "allocateFunds",
			"outputs": [],
			"stateMutability": "nonpayable",
			"type": "function"
		},
		{
			"inputs": [],
			"name": "budgetCount",
			"outputs": [
				{
					"internalType": "uint256",
					"name": "",
					"type": "uint256"
				}
			],
			"stateMutability": "view",
			"type": "function"
		},
		{
			"inputs": [
				{
					"internalType": "uint256",
					"name": "",
					"type": "uint256"
				}
			],
			"name": "budgets",
			"outputs": [
				{
					"internalType": "string",
					"name": "projectName",
					"type": "string"
				},
				{
					"internalType": "uint256",
					"name": "totalBudget",
					"type": "uint256"
				},
				{
					"internalType": "uint256",
					"name": "allocatedAmount",
					"type": "uint256"
				},
				{
					"internalType": "bool",
					"name": "finalized",
					"type": "bool"
				}
			],
			"stateMutability": "view",
			"type": "function"
		},
		{
			"inputs": [
				{
					"internalType": "string",
					"name": "_projectName",
					"type": "string"
				},
				{
					"internalType": "uint256",
					"name": "_totalBudget",
					"type": "uint256"
				}
			],
			"name": "createBudget",
			"outputs": [],
			"stateMutability": "nonpayable",
			"type": "function"
		},
		{
			"inputs": [
				{
					"internalType": "uint256",
					"name": "_budgetId",
					"type": "uint256"
				}
			],
			"name": "finalizeBudget",
			"outputs": [],
			"stateMutability": "nonpayable",
			"type": "function"
		},
		{
			"inputs": [
				{
					"internalType": "uint256",
					"name": "_budgetId",
					"type": "uint256"
				}
			],
			"name": "getBudget",
			"outputs": [
				{
					"internalType": "string",
					"name": "projectName",
					"type": "string"
				},
				{
					"internalType": "uint256",
					"name": "totalBudget",
					"type": "uint256"
				},
				{
					"internalType": "uint256",
					"name": "allocatedAmount",
					"type": "uint256"
				},
				{
					"internalType": "bool",
					"name": "finalized",
					"type": "bool"
				}
			],
			"stateMutability": "view",
			"type": "function"
		}
	]
}